:100000000C94141D0C94451D0C94451D0C94451D19
:100010000C94451D0C94451D0C94451D0C94451DD8
:100020000C94451D0C94451D0C94451D0C94451DC8
:100030000C94451D0D94F0160C94451D0C94451D13
:100040000C94451D0C9438C10C94451D0C94451D11
:100050000C94451D0C94451D0C94FABA0D946A1A23
:100060000C94451D0C947B9E0C94719E0C94451D24
:100070000C94451D0C94451D0C94451D0C94451D78
:100080000C9449780C94451D0C94451D0C94451D09
:100090000C94451D0C94451D0C94451D0C94451D58
:1000A0000C94451D0C94451D0C941B780C94451D17
:1000B0000C94451D0C94451D0C94451D0C94ED7736
:1000C0000C94451D0C94451D0C94451D0C94451D28
:1000D0000C94451D0C94451D0C94451D0C94451D18
:1000E0000C94451D084AD73B3BCE016E84BCBFFD36
:1000F000C12F3D6C74319ABD56833DDA3D00C77FF8
:1001000011BED9E4BB4C3E916BAAAABE0000008090
:100110003F05A84CCDB2D44EB93836A9020C50B91F
:10012000918688083CA6AAAA2ABE000000803F004B
:100130000D94520B0D9455350D9407180D941E18FF
:100140000D948D180D9442180D94C50A0D942D0B25
:100150000D946F180D94490B0D94450B0D94D50B10
:100160000D94240B0D94133D0D94200B0D944C18FD
:100170000D943A180D941C0B0D943F0B0D94120B1B
:100180000D9479180D94570B0D94370B0D94A118FD
:100190000D943B0B0D944D0B0D94270B0D9456189D
:1001A0000D9432180D94C70A0D9414180D948318E9
:1001B0000D94C40A0D94180B0D9460180D940F182B
:1001C0000D9428180D94310B0D94530B0D94971822
:1001D0004E414E494E495459494E46CDCCCC3D0A2C
:1001E000D7233C17B7D13877CC2B329595E6241F0F
:1001F000B14F0A000020410000C84200401C4620C8
:10020000BCBE4CCA1B0E5AAEC59D7400407A10F39A
:100210005A00A0724E18090010A5D4E80000E87634
:1002200048170000E40B54020000CA9A3B0000008B
:10023000E1F505000080969800000040420F0000A4
:1002400000A08601000000102700000000E8030065
:100250000000006400000000000A0000000000012F
:1002600000000000002C76D888DC674F0823DFC12F
:10027000DFAE59E1B1B796E5E3E453C63AE65199EA
:100280007696E8E6C28426EB898C9B62ED407C6F13
:10029000FCEFBC9C9F40F2BAA56FA5F490055A2ACA
:1002A000F75C936B6CF9676DC11BFCE0E40D47FED6
:1002B000F520E6B500D0ED902E03009435770500CB
:1002C00080841E080000204E0A000000C80C333352
:1002D00033330F986E12831141EF8D2114893BE661
:1002E0005516CFFEE6DB18D1844B381BF77C1D90EA
:1002F0001DA4BBE424203284725E228100C9F12453
:10030000ECA1E53D27554E4C4F41442046494C4118
:100310004D454E54004C4F41442046494C414D45BB
:100320004E540046494C414D454E54204348414EA1
:10033000474500290A0020746F20003F5A206F753E
:1003400074206F662072616E6765202800290A009C
:1003500020746F20003F59206F7574206F662072E3
:10036000616E676520282D00290A0020746F200027
:100370003F58206F7574206F662072616E6765202C
:10038000282D0050726F6265204F66667365742079
:100390005800220A00656E7175657565696E672083
:1003A00022002042002050006F6B00526573656E82
:1003B000643A200023646566696E652044454641C1
:1003C000554C545F004B6420004B6920004B70205B
:1003D00000504944204175746F74756E65206669DC
:1003E0006E69736865642120507574207468652097
:1003F0006C617374204B702C204B6920616E6420FB
:100400004B6420636F6E7374616E74732066726FD9
:100410006D2062656C6F7720696E746F20436F6E1C
:1004200066696775726174696F6E2E680A0050495B
:1004300044204175746F74756E65206661696C65E2
:1004400064212074696D656F75740A0050494420F9
:100450004175746F74756E65206661696C656421A1
:100460002054656D706572617475726520746F6F6C
:1004700020686967680A00204B643A2000204B69B5
:100480003A2000204B703A20000A20436C617373BD
:10049000696320504944200A002054753A20002006
:1004A0004B753A2000206D61783A2000206D696E0E
:1004B0003A200020643A200020626961733A2000EB
:1004C000504944204175746F74756E652073746172
:1004D00072740A00504944204175746F74756E65DA
:1004E000206661696C6564212054656D7065726178
:1004F0007475726520746F6F20686967680A0050B0
:100500004944204175746F74756E65206661696C2D
:100510006564212042616420657874727564657237
:10052000206E756D6265720A004572723A207574AC
:10053000663820666F6E74206E6F7420696E697401
:1005400069616C697A65642E004572723A2075742F
:10055000663820666F6E74206E6F7420696E6974E1
:1005600069616C697A65642E004572723A2075740F
:10057000663820666F6E74206E6F7420696E6974C1
:1005800069616C697A65642E004C6F61642046690C
:100590006C616D656E74202A004C6F6164206D6D16
:1005A00000556E6C6F61642046696C616D656E7498
:1005B000202A00556E6C6F6164206D6D0046696C79
:1005C0002E204469612E202A0046696C2E20446941
:1005D000612E004520696E206D6DC2B30020082099
:1005E00046616374002008204D6178002008204D8A
:1005F000696E004F6666004F6E004175746F7465DA
:100600006D70005654726176204D696E00566D69AA
:100610006E00566D6178204500566D6178205A0055
:10062000566D6178205900566D6178205800416DF3
:100630006178204500416D6178205A00416D6178F4
:10064000205900416D6178205800412D5472617627
:10065000656C00412D52657472616374004163637F
:10066000656C004A756E6374696F6E204465760030
:1006700050726F6265205A204F6666736574005031
:10068000726F62652059204F666673657400507200
:100690006F62652058204F666673657400457374F9
:1006A0006570732F6D6D005A73746570732F6D6D67
:1006B000005973746570732F6D6D00587374657095
:1006C000732F6D6D00416476616E636564205365C0
:1006D0007474696E6773003F0043616E63656C00FC
:1006E000496E6974004D34323800496E697469612D
:1006F0006C697A6520454550524F4D0046696C61E2
:100700006D656E740054656D7065726174757265A7
:100710000053746570732F6D6D0050726F626520A9
:100720004F666673657473004A65726B004163635C
:10073000656C65726174696F6E0056656C6F636994
:1007400074790053657420486F6D65204F66667339
:1007500065747300436F6E66696775726174696F63
:100760006E003F004E65787420436F726E657200B4
:10077000446F6E65004E65787400486F6D696E67F2
:100780002058595A0053746F726520536574746908
:100790006E6773004C6F61642053657474696E6793
:1007A00073004C6576656C20436F726E65727300E2
:1007B00050726F6265205A204F66667365740046FA
:1007C00061646520486569676874004F6666004F1C
:1007D0006E00426564204C6576656C696E67004703
:1007E00032380A47323900473239004C6576656C39
:1007F00020426564004175746F20486F6D65004D3F
:100800006F74696F6E005A20526169736500436DA1
:10081000643A2053572D4D6F646500436D643A2050
:1008200053746F7700436D643A204465706C6F7940
:1008300000436D643A2053656C662D5465737400F3
:10084000436D643A20526573657400426564004EDE
:100850006F7A7A6C650046616E205370656564003E
:10086000436F6E66696775726174696F6E004C6F75
:1008700061642053657474696E67730053746F729A
:10088000652053657474696E677300526573746F85
:1008900072652044656661756C747300507265689A
:1008A0006561742041425320436F6E66005072654B
:1008B0006865617420504C4120436F6E66004F663E
:1008C00066004F6E0052756E6F75742053656E73BF
:1008D0006F7200546F6F6C204368616E67650042F1
:1008E0004C546F7563680050726F6265205A204FD8
:1008F000666673657400416476616E636564205357
:10090000657474696E6773004D61696E004D3730B0
:100910003220542564004D3630302042302054259A
:1009200064004D373032203B2564004D3730312094
:10093000542564004368616E67652046696C616D8B
:10094000656E7400507265686561742041425300A1
:100950005072656865617420504C41005072656842
:1009600065617420437573746F6D004261636B0041
:100970004D36303020423020542569004368616E86
:1009800067652046696C616D656E74202A004D6153
:10099000696E004F6666004F6E0052756E6F75741B
:1009A0002053656E736F72005075726765206D6FAE
:1009B000726500436F6E74696E75650052455355DC
:1009C0004D45204F5054494F4E533A005052494ED6
:1009D00054205041555345440020204E6F7A7A6C84
:1009E000653A20005061726B696E672E2E2E0000F2
:1009F000005761697420666F720066696C616D658D
:100A00006E74206368616E676500746F2073746133
:100A10007274005761697420666F720066696C6158
:100A20006D656E7420756E6C6F616400004E6F7A38
:100A30007A6C652068656174696E6700506C6561E9
:100A4000736520776169742E2E2E000050726573D5
:100A50007320627574746F6E00746F2068656174C2
:100A6000206E6F7A7A6C650000496E73657274202F
:100A700066696C616D656E7400616E64207072658C
:100A8000737320627574746F6E00746F20636F6E81
:100A900074696E7565005761697420666F720066CF
:100AA000696C616D656E74206C6F616400005072DA
:100AB00065737320427574746F6E00746F20726575
:100AC00073756D65207072696E740000576169748A
:100AD00020666F72207072696E7400746F20726588
:100AE00073756D652E2E2E00005761697420666F38
:100AF000720066696C616D656E74207075726765F1
:100B00000000313230003A200035003A20004245E2
:100B1000443A4550434F53203130304B0052756EAC
:100B2000617761792057617463683A204F4E004DB8
:100B300061782054656D7000323530003A20004DE8
:100B4000696E2054656D700035003A200045313AD9
:100B5000204550434F53203130304B005053550007
:100B600047656E65726963003A200050726F746F5A
:100B7000636F6C00312E30003A20004261756400D2
:100B8000313135323030003A2000437265616C6992
:100B9000747933442052414D50530042696C696E60
:100BA000656172204C6576656C696E670045787486
:100BB0007275646572730032003A20006874747054
:100BC0003A2F2F6D61726C696E66772E6F726700B7
:100BD00043522D31305300323032302D30332D33EB
:100BE0003100322E302E352E33004D61726C696E1D
:100BF00000546865726D6973746F727300426F613F
:100C0000726420496E666F005072696E746572205E
:100C1000496E666F004D61696E003F004261636B13
:100C20000053746F70005072696E742066726F6D3D
:100C3000204D65646961004D3231004368616E6723
:100C400065204D656469610041626F757420507262
:100C5000696E746572004368616E67652046696CF1
:100C6000616D656E7400436F6E666967757261745D
:100C7000696F6E0054656D706572617475726500A0
:100C80004D6F74696F6E00526573756D652050729B
:100C9000696E74004E6F204D656469610054756E15
:100CA000650053746F70205072696E7400506175E6
:100CB0007365205072696E7400496E666F205363CD
:100CC0007265656E003F00537461727420507269E2
:100CD0006E740043616E63656C005072696E7400DF
:100CE00043616E6E6F7420656E74657220737562F9
:100CF0006469723A2000022E2E004D61696E004533
:100D000078747275646572202A004D6F74696F6E15
:100D1000004D38340044697361626C65205374651A
:100D2000707065727300426564204C6576656C690D
:100D30006E67004732385A00486F6D65205A004789
:100D400032385900486F6D652059004732385800D5
:100D5000486F6D65205800473238004175746F2028
:100D6000486F6D65004D61696E0050726568656120
:100D70007420504C4120456E640050726568656176
:100D80007420504C41204265640050726568656172
:100D90007420414253204265640050726568656169
:100DA000742041425320456E640054656D70657235
:100DB000617475726500436F6F6C646F776E00507D
:100DC00072656865617420414253005072656865C0
:100DD000617420504C410046616E2053706565641B
:100DE000207E00426564004E6F7A7A6C65205374F1
:100DF000616E646279004E6F7A7A6C65004D61694C
:100E00006E004261627973746570205A00466C6F9F
:100E100077207E00466C6F770046616E20537065C8
:100E20006564207E00426564004E6F7A7A6C6520AE
:100E30005374616E646279004E6F7A7A6C65005308
:100E400070656564004D61696E00000C0D00FE0761
:100E5000022603BC017FFE08FE08FE050808060006
:100E60000040F0C88888987810050808060000C07F
:100E7000F88888888888F80505050600012030F87C
:100E800030200508080600002070F820202020E00F
:100E90000509090600FF2070A8A8B88888702005F9
:100EA0000606060001E08CEA8C8A0A05090906009C
:100EB000FFF8A88888888888A8F8050A0A0600FE2E
:100EC000205050505088A8A88870030303060003E0
:100ED00040A040FFFFFFFFFFFFFFFFFFFFFFFFFFFF
:100EE000FFFFFFFFFFFFFFFFFF0000000605FF0100
:100EF00007070602008080808080008003030306CD
:100F00000105A0A0A005060606000050F85050F804
:100F1000500509090600FF2070A8A07028A87020BD
:100F2000050707060000C8C8102040989805070765
:100F300006000040A0A040A8906801030306020537
:100F40008080800309090601FF20404080808040A6
:100F500040200309090601FF804040202020404036
:100F60008005070706000020A8702070A82005054E
:100F7000050600012020F820200203030601FFC01F
:100F80004080050101060003F8020202060100C0CC
:100F9000C005070706000008101020404080050724
:100FA00007060000708898A8C88870030707060124
:100FB0000040C040404040E0050707060000708840
:100FC00008102040F8050707060000F80810300850
:100FD000887005070706000010305090F8101005C3
:100FE0000707060000F880F0080888700507070664
:100FF0000000304080F0888870050707060000F880
:10100000081010202020050707060000708888704F
:1010100088887005070706000070888878081060C7
:10102000020505060100C0C000C0C0020606060198
:10103000FFC0C000C04080030505060101204080BC
:101040004020050303060002F800F8030505060129
:1010500001804020408005070706000070881020AE
:101060002000200507070600007088B8A8B8807027
:10107000050707060000708888F888888805070734
:10108000060000F04848704848F0050707060000D1
:1010900070888080808870050707060000F0484847
:1010A000484848F0050707060000F88080F0808077
:1010B000F8050707060000F88080F08080800507AB
:1010C0000706000070888080988870050707060072
:1010D00000888888F8888888030707060100E040B0
:1010E00040404040E005070706000038101010108F
:1010F00090600507070600008890A0C0A0908805B2
:101100000707060000808080808080F805070706BA
:10111000000088D8A8888888880507070600008806
:1011200088C8A898888805070706000070888888FE
:10113000888870050707060000F08888F0808080A6
:1011400005070706000070888888A89068050707CB
:10115000060000F08888F0A09088050707060000C8
:1011600070888070088870050707060000F8202046
:1011700020202020050707060000888888888888A6
:1011800070050707060000888888885050200507EA
:101190000706000088888888A8A850050707060069
:1011A0000088885020508888050707060000888836
:1011B0005020202020050707060000F808102040D6
:1011C00080F80309090601FFE0808080808080802C
:1011D000E0050707060000804040201010080309C2
:1011E000090601FFE020202020202020E005030345
:1011F0000600052050880501010600FEF8030303E0
:101200000601058040200505050600007008788865
:10121000780507070600008080F0888888F00505BB
:10122000050600007080808870050707060000082A
:101230000878888888780505050600007088F080A1
:1012400070050707060000304840E04040400507B1
:10125000070600FE70888888780870050707060072
:10126000008080F088888888030707060100400016
:10127000C0404040E00409090601FE100030101093
:101280001010906005070706000080808890E090AD
:1012900088030707060100C04040404040E00505C4
:1012A00005060000D0A8A8A8A8050505060000B0FE
:1012B000C88888880505050600007088888870053C
:1012C00007070600FEF0888888F08080050707067B
:1012D00000FE78888888780808050505060000B0B3
:1012E000C880808005050506000078807008F0053C
:1012F00007070600002020F8202020180505050615
:101300000000888888986805050506000088888898
:1013100050200505050600008888A8A85005050589
:1013200006000088502050880507070600FE8888C0
:101330008850204080050505060000F8102040F880
:101340000309090601FF2040404080404040200141
:1013500009090602FF8080808080808080800309E8
:10136000090601FF804040402040404080050303C3
:1013700006000248A890FF434F4D4D554E4943414A
:1013800054494F4E0044525952554E004552524F07
:10139000525300494E464F004543484F0045727234
:1013A0006F722077726974696E6720746F2045458B
:1013B00050524F4D210A00363726033C3D380E2E41
:1013C000303E121A1C1824221E08440AFF43080942
:1013D000070001627573793A207061757365642046
:1013E000666F7220696E7075740A00627573793A5F
:1013F0002070617573656420666F72207573657205
:101400000A00627573793A2070726F63657373694D
:101410006E670A004D3630300053544F50504544EB
:101420002E20005072696E7465722073746F707034
:1014300065642064756520746F206572726F7273C5
:101440002E2046697820746865206572726F72205C
:10145000616E6420757365204D39393920746F20B1
:10146000726573746172742E202854656D70657294
:1014700061747572652069732072657365742E20BE
:101480005365742069742061667465722072657397
:1014900074617274696E67290A004E6F2043686533
:1014A000636B73756D2077697468206C696E652055
:1014B0006E756D6265722C204C617374204C696E80
:1014C000653A20004E6F20436865636B73756D202D
:1014D00077697468206C696E65206E756D626572DF
:1014E0002C204C617374204C696E653A200063684F
:1014F00065636B73756D206D69736D617463682CC2
:10150000204C617374204C696E653A20004C696E02
:1015100065204E756D626572206973206E6F742050
:101520004C617374204C696E65204E756D626572F6
:101530002B312C204C617374204C696E653A20006D
:101540004D31313000534420726561642065727200
:101550006F720A002121204B494C4C206361757346
:101560006564206279204B494C4C20627574746F1D
:101570006E2F70696E0A002121204B494C4C20636C
:10158000617573656420627920746F6F206D756377
:101590006820696E6163746976652074696D652081
:1015A0002D2063757272656E7420636F6D6D616E50
:1015B000643A2000506C65617365205265736574F0
:1015C000005052494E5445522048414C5445440025
:1015D00025533A202553004B494C4C45442E2000BE
:1015E0005072696E7465722068616C7465642E2037
:1015F0006B696C6C28292063616C6C6564210A003E
:1016000053544F505045442E20005072696E7465FB
:10161000722073746F707065642064756520746FD8
:10162000206572726F72732E204669782074686527
:10163000206572726F7220616E6420757365204D33
:1016400039393920746F20726573746172742E2079
:101650002854656D706572617475726520697320B8
:1016600072657365742E20536574206974206166F9
:101670007465722072657374617274696E67290A89
:10168000006563686F3A004572726F723A00426992
:101690006C696E656172204C6576656C696E672059
:1016A000477269643A0A0021212053544F50206345
:1016B000616C6C65642062656361757365206F663B
:1016C00020424C546F756368206572726F72202DD2
:1016D00020726573746172742077697468204D3963
:1016E00039390A0021212053544F502063616C6C1A
:1016F00065642062656361757365206F6620424C86
:10170000546F756368206572726F72202D20726548
:1017100073746172742077697468204D3939390A9D
:1017200000486F74656E6420746F6F20636F6C6423
:101730000A0053656E64204D31303820746F20727A
:101740006573756D650A00496E736572742066690C
:101750006C616D656E7420616E642073656E6420CB
:101760004D3130380A0053656E64204D31303820D9
:10177000746F2068656174206E6F7A7A6C650A00F8
:10178000496E736572742066696C616D656E742054
:10179000616E642073656E64204D3130380A0047F5
:1017A00032362048656174696E67204E6F7A7A6CB4
:1017B00065004732362048656174696E672042656E
:1017C000640057616974696E6720666F722068658E
:1017D000617475702E0A004669786564204C656EE8
:1017E000677468205072696D6500446F6E652050A3
:1017F00072696D696E67004D616E75616C20707203
:10180000696D696E672E2E2E004732362043616E59
:1018100063656C6564004C656176696E672047326C
:1018200036003F53706563696669656420582C59BA
:1018300020636F6F7264696E617465206F757420C8
:101840006F6620626F756E64732E0A003F285229FE
:1018500065706561742076616C7565206E6F7420AB
:10186000706C61757369626C653B206D7573742073
:101870006265206174206C6561737420312E0A00EA
:101880003F537065636966696564206E6F7A7A6C30
:10189000652074656D7065726174757265206E6F18
:1018A0007420706C61757369626C652E0A003F5319
:1018B00070656369666965642066696C616D656EF3
:1018C000742073697A65206E6F7420706C61757313
:1018D00069626C652E0A003F5370656369666965CD
:1018E00064207072696D65206C656E677468206E27
:1018F0006F7420706C61757369626C652E0A003FAD
:10190000537065636966696564206E6F7A7A6C6589
:101910002073697A65206E6F7420706C61757369CD
:10192000626C652E0A003F52657472616374696F60
:101930006E204D756C7469706C696572206D75737D
:1019400074206265207370656369666965642E0A38
:10195000003F5370656369666965642052657472FF
:10196000616374696F6E204D756C7469706C696524
:1019700072206E6F7420706C61757369626C652E75
:101980000A003F537065636966696564206C61791C
:10199000657220686569676874206E6F7420706C6A
:1019A00061757369626C652E0A0043292E0A003F37
:1019B0005370656369666965642062656420746557
:1019C0006D7065726174757265206E6F7420706CD5
:1019D00061757369626C65202834302D004732369A
:1019E000207374617274696E672E2E2E0A004F4642
:1019F000460A00466164652048656967687420008E
:101A0000426564204C6576656C696E6720004661AE
:101A1000696C656420746F20656E61626C6520423C
:101A20006564204C6576656C696E670A00496E7660
:101A3000616C6964206D6573682E0A0050726F6274
:101A4000696E6720506F696E740025532025692FD9
:101A50002569002E0A002F0050726F62696E6720A0
:101A60006D65736820706F696E7420002028445281
:101A70005952554E2900473239204175746F204222
:101A80006564204C6576656C696E67003F20284C64
:101A90002C522C462C4229206F7574206F662062D0
:101AA0006F756E64732E0A003F2856296572626F47
:101AB0007365206C6576656C20696D706C617573FB
:101AC00069626C652028302D34292E0A0042616439
:101AD000205A2076616C75650A004E6F2062696C31
:101AE000696E65617220677269640A00205800207F
:101AF000204D61783A2000200020204D696E3A2068
:101B000000536F667420656E6473746F70733A204F
:101B100000496E76616C69642050696E204D6F6477
:101B2000650A004D3630303A20546F6F20436F6C99
:101B30006400486F74656E6420746F6F20636F6C0F
:101B4000640A0020496E76616C696420657874725D
:101B500075646572200047322F473320626164202C
:101B6000706172616D65746572730A00536C6565AE
:101B7000702E2E2E005A2050726F626520506173B5
:101B800074204265640A005A2050726F62652050CA
:101B90006173742042656400486F6D652058592058
:101BA00066697273740A00486F6D65205859204643
:101BB0006972737400205A3A200020593A2000427A
:101BC000656420583A20004D65736820706F696E17
:101BD000742063616E6E6F74206265207265736F2E
:101BE0006C7665640A00436C69636B20746F2052E5
:101BF0006573756D652E2E2E004E6F204D6F7665C8
:101C00002E00456E642066696C65206C6973740AE9
:101C100000426567696E2066696C65206C69737443
:101C20000A00286E6F2066696C6529004375727220
:101C3000656E742066696C653A20005344207072AA
:101C4000696E74696E67206279746520004E6F74E6
:101C5000205344207072696E74696E670A002E0A00
:101C60000044656C6574696F6E206661696C6564BB
:101C70002C2046696C653A200046696C65206465D5
:101C80006C657465643A002569730025696D2025CB
:101C90006973002569682025696D20256973002511
:101CA0006964202569682025696D202569730025F0
:101CB000697920256964202569682025696D2025BA
:101CC0006973005072696E742074696D653A200002
:101CD0006F6B006F666600981393138C13851377F0
:101CE0001344454255473A004D31313320530042A9
:101CF000656420436F6F6C696E672E2E2E004265FF
:101D0000642048656174696E672E2E2E0043522D43
:101D1000313053204F46462E004348414D424552F4
:101D20005F54454D5045524154555245004D4F5416
:101D3000494F4E5F4D4F44455300544845524D4125
:101D40004C5F50524F54454354494F4E00415554F7
:101D50004F5245504F52545F53445F535441545572
:101D6000530050524F4D50545F535550504F5254A2
:101D700000454D455247454E43595F5041525345EA
:101D80005200434153455F4C494748545F425249D2
:101D90004748544E45535300544F47474C455F4CBA
:101DA000494748545300534F4654574152455F509A
:101DB0004F574552004255494C445F5045524345A8
:101DC0004E54004C4556454C494E475F44415441A2
:101DD000005A5F50524F4245004155544F4C4556B2
:101DE000454C005052494E545F4A4F420050524FAA
:101DF0004752455353004155544F5245504F52544A
:101E00005F54454D5000564F4C554D455452494333
:101E100000454550524F4D0042494E4152595F4690
:101E2000494C455F5452414E53464552005345522A
:101E300049414C5F584F4E5F584F46460046495205
:101E40004D574152455F4E414D453A4D61726C6967
:101E50006E20322E302E352E332028476974487577
:101E6000622920534F555243455F434F44455F55C8
:101E7000524C3A68747470733A2F2F67697468759E
:101E8000622E636F6D2F4D61726C696E4669726D63
:101E9000776172652F4D61726C696E2050524F549C
:101EA0004F434F4C5F56455253494F4E3A312E30B7
:101EB000204D414348494E455F545950453A43529D
:101EC0002D3130532045585452554445525F434FAD
:101ED000554E543A3220555549443A63656465324B
:101EE0006132662D343161322D343734382D396208
:101EF00031322D6335356336326633363766660ADE
:101F0000002F2F20004D31343520533C696E64651D
:101F1000783E206F7574206F662072616E67652051
:101F200028302D31290A00205200416363656C6519
:101F3000726174696F6E3A2050003F4A206F757469
:101F4000206F662072616E67652028302E30312048
:101F5000746F20302E33290A0046523A0020466C16
:101F60006F773A200050726F746563746564205017
:101F7000696E0A003A200020536572766F200020B7
:101F80006F7574206F662072616E67650A00536515
:101F900072766F200020643A0020693A0020703A7F
:101FA00000496E76616C6964206578747275646549
:101FB000720A0064697300656E0043290A00616259
:101FC0006C656420286D696E2074656D7020004317
:101FD0006F6C6420657874727564657320617265D6
:101FE00020004F4646004F4E0046696C616D656E9D
:101FF000742072756E6F757420004D657368207063
:102000006F696E742063616E6E6F742062652072FA
:1020100065736F6C7665640A004D34323120696EE9
:10202000636F727265637420706172616D6574654F
:10203000722075736167650A004F66667365747315
:10204000204170706C696564004572723A20546F6B
:102050006F206661722100546F6F20666172206686
:10206000726F6D207265666572656E636520706F54
:10207000696E740A00454550524F4D204F4B0A007F
:10208000446F6E65207072696E74696E6720666950
:102090006C650A004D3737004D3331004469666680
:1020A0003A200046726F6D5374703A005374657035
:1020B0007065723A00556E4C6576656C3A004C65F9
:1020C00076656C65643A005261773A2020202000E2
:1020D0000A4C6F676963616C3A00436F756E7420D8
:1020E000453A004361703A002568753A25303268F8
:1020F000750025303268753A253032687500202029
:1021000020202020200020202020001FE020102060
:102110001020101020102020102010303008400413
:102120008003001FE03FF03FF03FF01FE01FE03F63
:10213000F03FF03FF00FC0078003003FFFF0380092
:102140007030FC3020FC102078102030102C00D093
:102150002E31D02F7BD02F7BD02E31D02C00D02011
:10216000301020781020FC1030FC303800703FFF19
:10217000F03FFFF0380070318630238710278790BA
:102180002F87D02F03D020301020781020781020F7
:1021900030102F03D02F87D02787902387103186C8
:1021A000303800703FFFF01FFFF81FFFF8041040A9
:1021B000020820020820041040082080104100106E
:1021C00041000820800410400000001FFFF81FFF9E
:1021D000F83DF00238F0448806451080880245003A
:1021E00080F002448080A3F244608090024410801A
:1021F00090024410448802451039CC0739E00000B1
:10220000000000003870E0000044891000000489DC
:1022100010000018891000000489100000048910C3
:102220000000048910000044891000003870E000AC
:102230004D656469612052656D6F766564004D651A
:1022400064696120496E73657274656400507269D7
:102250006E742041626F72746564004D3235205097
:102260000A4D3234005061757365205072696E7486
:1022700000290A002062797465733B206372632031
:102280000053657474696E67732053746F7265646C
:10229000202800454550524F4D2064617461736998
:1022A0007A65206572726F722E0A00290A00206218
:1022B000797465733B2063726320002073746F72BE
:1022C00065642073657474696E67732072657472D7
:1022D00069657665642028004572723A204545504C
:1022E000524F4D2043524300202863616C63756C4C
:1022F0006174656429210A0020213D200045455074
:10230000524F4D20435243206D69736D6174636871
:10231000202D202873746F72656429200045727225
:102320003A20454550524F4D20496E646578002053
:1023300053697A653A2000496E6465783A20004511
:1023400072723A20454550524F4D2056657273695E
:102350006F6E00204D61726C696E3D563736290AEA
:1023600000454550524F4D2076657273696F6E205F
:102370006D69736D617463682028454550524F4DF7
:102380003D0048617264636F646564204465666102
:10239000756C742053657474696E6773204C6F613B
:1023A0006465640A0000401C4500401C450000C8EC
:1023B000420000C8410000A0420000A0420000C846
:1023C000430000BE42F4010000F40100006400007C
:1023D00000881300003B20003A0A0020204D3630D0
:1023E00033200020204D34313220530046696C6187
:1023F0006D656E742072756E6F75742073656E7383
:102400006F723A00546F6F6C2D6368616E67696E0E
:10241000673A002055005431204C002055005430BC
:10242000204C0046696C616D656E74206C6F616450
:102430002F756E6C6F6164206C656E677468733A9B
:102440000020204D3835312058005A2D50726F62CF
:1024500065204F66667365740020440020490020A3
:10246000204D33303120500050494420736574743E
:10247000696E67733A002046002042002048002021
:10248000204D3134352053004D6174657269616CA3
:102490002068656174757020706172616D65746526
:1024A00072733A00204A00202047323920572049D1
:1024B0000020204D3432302053004175746F20428B
:1024C0006564204C6576656C696E673A0020204D26
:1024D000323036205800486F6D65206F6666736530
:1024E000743A00204A0020530020204D323035201D
:1024F0004200416476616E6365643A20423C6D69D6
:102500006E5F7365676D656E745F74696D655F7529
:10251000733E20533C6D696E5F66656564726174DD
:10252000653E20543C6D696E5F74726176656C5FC8
:1025300066656564726174653E204A3C6A756E63C7
:102540005F6465763E0020520020204D32303420FA
:102550005000416363656C65726174696F6E202819
:10256000756E6974732F7332293A20503C7072690A
:102570006E745F616363656C3E20523C7265747279
:102580006163745F616363656C3E20543C74726187
:1025900076656C5F616363656C3E0020204D323070
:1025A000312058004D6178696D756D204163636518
:1025B0006C65726174696F6E2028756E6974732F13
:1025C0007332293A0020204D3230332058004D61BB
:1025D00078696D756D2066656564726174657320D8
:1025E00028756E6974732F73293A0053746570737C
:1025F0002070657220756E69743A0020204D32306B
:10260000302044300A0020440020540020204D3265
:102610003030002044697361626C65640A00466969
:102620006C616D656E742073657474696E67733A5E
:102630000020204D3134392043203B20556E6974F1
:102640007320696E2043656C736975730A002028D6
:102650006D6D29002020473231202020203B20555D
:102660006E69747320696E206D6D00486F6D696EC0
:1026700067204661696C6564006F70656E00545236
:1026800049474745524544003A200066696C616DF0
:10269000656E74007A5F6D696E00795F6D696E00BA
:1026A000785F6D696E005265706F7274696E672035
:1026B000656E6473746F70207374617475730A004F
:1026C00000809F43000099430000C8430000804001
:1026D000000000400000000020746F6F206C6F6EDF
:1026E0006720657874727573696F6E207072657695
:1026F000656E7465640A0020636F6C64206578748D
:10270000727573696F6E2070726576656E7465643C
:102710000A000000804000000040000000000000AF
:10272000A0410000A041000000415761726E696E37
:10273000673A20486F6D696E672042756D7020445E
:10274000697669736F72203C20310A00020204002E
:1027500000A0400000A0400000004000809D430019
:102760000098430000C843FFFFFF20746F6F206C88
:102770006F6E6720657874727573696F6E20707202
:102780006576656E7465640A0020636F6C6420650D
:102790007874727573696F6E2070726576656E7489
:1027A00065640A0024F4D43050C38E20C2A24017BE
:1027B000828B7011127A910D816CD90AA861E1089F
:1027C000C7586607615143061E4B5D05C145A70406
:1027D0001A411104093D9803713931034036DB0277
:1027E00065339102D4305402802E1D02632CEE0119
:1027F000752AC501B028A001102781018F25640129
:102800002B244B01E0223401AC211F018D200D014E
:10281000801FFC00841EED00971DDF00B81CD20055
:10282000E61BC600201BBC00641AB200B219A80047
:102830000A19A0006A189900D117910040178B005F
:10284000B516840031167E00B31579003A15730071
:10285000C7146F0058146A00EE13660088136300F3
:1028600025135E00C7125B006C125700151254004E
:10287000C111510070114F0021114B00D6104900B9
:102880008D1047004610440002104200C00F400067
:10289000800F3E00420F3C00060F3B00CB0E38007D
:1028A000930E37005C0E3500270E3400F30D320016
:1028B000C10D3100900D3000600D2E00320D2D0045
:1028C000050D2C00D90C2B00AE0C2900850C29001D
:1028D0005C0C2700350C27000E0C2600E80B2400AA
:1028E000C40B2400A00B23007D0B23005A0B2100F6
:1028F000390B2100180B2000F80A1F00D90A1E000E
:10290000BB0A1E009D0A1D00800A1D00630A1C00F0
:10291000470A1B002C0A1B00110A1A00F7091A00AB
:10292000DD091900C4091900AB0919009209170043
:102930007B091800630917004C09160036091600B8
:10294000200916000A091500F5081500E008140012
:10295000CC081400B8081400A40814009008130050
:102960007D0812006B081300580812004608120078
:102970003408110023081100120811000108110089
:10298000F0071000E0071000D0071000C00710008B
:10299000B0070F00A107100091070E0083070F007A
:1029A00074070F0065070E0057070E0049070E0059
:1029B0003B070D002E070E0020070D0013070D002A
:1029C00006070D00F9060C00ED060D00E0060C00F0
:1029D000D4060C00C8060C00BC060C00B0060C00A7
:1029E000A4060B0099060C008D060B0082060B0056
:1029F00077060B006C060B0061060A0057060B00F9
:102A00004C060A0042060A0038060A002E060A0092
:102A100024060A001A060A001006090007060A0022
:102A2000FD050900F4050900EB050900E2050900B0
:102A3000D9050900D0050900C7050900BE05090030
:102A4000B5050800AD050800A50509009C050800AE
:102A5000940508008C050800840508007C05080022
:102A6000740508006C050700650508005D05070092
:102A7000560508004E0507004705070040050800F9
:102A800038050700310507002A0507002305070060
:102A90001C050600160507000F05070008050600BF
:102AA00002050700FB040600F5040700EE0406001B
:102AB000E8040600E2040700DB040600D504060073
:102AC000CF040600C9040600C3040600BD040600C6
:102AD000B7040600B1040500AC040600A604060015
:102AE000A00405009B040600950405009004060060
:102AF0008A04050085040500800406007A040500A8
:102B000075040500700405006B04050066040500EB
:102B1000610405005C04050057040500520405002B
:102B20004D04050048040500430405003E0404006C
:102B30003A04050035040500300404002C040500A7
:102B400027040400230405001E0404001A040400E2
:102B500016040500110404000D0404000904050016
:102B60000404040000040400FC030400F80304004F
:102B7000F4030400F0030400EC030400E803040081
:102B8000E4030400E0030400DC030400D8030400B1
:102B9000D4030400D0030400CC030400C8030300E2
:102BA000C503030024F404D9201BC40C5C0E980454
:102BB000C4095F0265077101F405F900FB04B30065
:102BC00048048700C103690058035500030345000A
:102BD000BE023A008402310053022A002902250075
:102BE00004022000E4011C00C8011900AF01170015
:102BF000980114008401130071011000610110009C
:102C000051010E0043010D0036010B002B010B009A
:102C100020010B00150109000C0109000301080047
:102C2000FB000800F3000800EB000700E4000600CA
:102C3000DE000600D8000600D2000600CC00050029
:102C4000C7000500C2000500BD000400B900040073
:102C5000B5000400B1000400AD000400A9000400A8
:102C6000A5000300A20003009F0004009B000300D6
:102C700098000300950002009300030090000300F9
:102C80008D0002008B000300880002008600020015
:102C900084000300810002007F0002007D0002002A
:102CA0007B0002007900020077000100760002003C
:102CB0007400020072000100710002006F00020047
:102CC0006D0001006C0002006A0001006900020052
:102CD0006700010066000100650001006400020059
:102CE0006200010061000100600001005F0002005D
:102CF0005D0001005C0001005B0001005A00010062
:102D00005900010058000100570001005600010061
:102D10005500010054000100530000005300010061
:102D20005200010051000100500001004F0001005D
:102D30004E0000004E0001004D0001004C0001005B
:102D40004B0000004B0001004A0001004900010057
:102D50004800000048000100470001004600000054
:102D6000460001004500000045000100440001004C
:102D70004300000043000100420000004200010047
:102D80004100000041000100400001003F00000040
:102D90003F0001003E0000003E0001003D00000039
:102DA0003D0001003C0000003C0000003C00010030
:102DB0003B0000003B0001003A0000003A00010027
:102DC0003900000039000100380000003800000020
:102DD0003800010037000000370001003600000015
:102DE000360000003600010035000000350000000C
:102DF0003500010034000000340000003400010000
:102E000033000000330000003300010032000000F6
:102E100032000000320001003100000031000000EB
:102E200031000100300000003000000030000100DF
:102E30002F0000002F0000002F0000002F000100D5
:102E40002E0000002E0000002E0001002D000000CA
:102E50002D0000002D0000002D0001002C000000BE
:102E60002C0000002C0000002C0001002B000000B2
:102E70002B0000002B0000002B0001002A000000A6
:102E80002A0000002A0000002A000100290000009A
:102E9000290000002900000029000000290001008D
:102EA0002800000028000000280000002800000082
:102EB0002800010027000000270000002700000074
:102EC0002700000027000100260000002600000067
:102ED000260000002600000026000100250000005A
:102EE000250000002500000025000000250000004E
:102EF0002500010024000000240000002400000040
:102F00002400000024000100230000002300000032
:102F10002300000023000000230000002300000025
:102F20002300010022000000220000002200000017
:102F30002200000022000000220001002100000009
:102F400021000000210000002100000021000000FD
:102F500021000000210001002000000020000000EE
:102F600020000000200000002000000020000000E1
:102F700020000000200001001F0000001F000000D2
:102F80001F0000001F0000001F0000001F000000C5
:102F90001F0001001E0000001E0000001E000000B7
:102FA0001E000000043700001E290000511B000015
:102FB0005810000010090000CC0400007802000046
:102FC0004101000020436F756E7420583A0042653D
:102FD0006400453100626564002C20737973746568
:102FE0006D2073746F70706564212048656174652D
:102FF000725F49443A200048656174696E672046F3
:1030000061696C65640048656174696E672066611A
:10301000696C6564004D3131322053687574646F9A
:10302000776E00544845524D414C2052554E415701
:10303000415900546865726D616C2052756E6177FC
:103040006179004572723A204D415854454D500007
:103050004D415854454D50207472696767657265DB
:1030600064004572723A204D494E54454D50004D12
:10307000494E54454D5020747269676765726564A6
:10308000004D383420582059205A204500202F0068
:103090002042403A0020403A0020573A0020573A58
:1030A000005072696E742050617573656400700120
:1030B0002C0190012701B0012201C0011D01F00186
:1030C00018011002130130020E0160020901900282
:1030D0000401C002FF000003FA004003F500800372
:1030E000F000D003EB002004E6007004E100E004EF
:1030F000DC004005D700C005D2004006CD00D00658
:10310000C8008007C3003008BE00F008B900C0093D
:10311000B400B00AAF00B00BAA00D00CA500000E9E
:10312000A000500F9B00C010960050129100001498
:103130008C00C0158700B0178200B0197D00D01B2D
:103140007800001E730040206E0090226900F02479
:10315000640040275F0090295A00E02B5500102E94
:10316000500020304B0010324600E03341009035D3
:103170003C001037370070383200A0392D00B03ACB
:103180002800A03B2300603C1E00103D1900903D2C
:103190001400103E0F00703E0A00C03E0500003FC4
:1031A0000000403FFBFF803FF6FFC03FF1FF496E4C
:1031B00076616C69642065787472756465720A0062
:1031C0004163746976652045787472756465723AF6
:1031D00020007C3C3E5E2B3D3F2F5B5D3B2C2A223A
:1031E0005C0043616E6E6F74206F70656E20737546
:1031F00062646972200053442063617264206F6BC3
:103200000A006F70656E526F6F74206661696C653D
:10321000640A00766F6C756D652E696E6974206640
:1032200061696C65640A00534420696E69742066A4
:1032300061696C0A004D3234004D32332025730031
:1032400046696C652073656C65637465640A00206B
:1032500053697A653A200046696C65206F70656E27
:1032600065643A2000454E4420535542524F555410
:10327000494E450A002220706F730022207061724F
:10328000656E743A2200535542524F5554494E458B
:103290002043414C4C207461726765743A2200747B
:1032A0007279696E6720746F2063616C6C2073752E
:1032B000622D67636F64652066696C65732077694A
:1032C000746820746F6F206D616E79206C6576650F
:1032D0006C732E204D4158206C6576656C206973A7
:1032E0003A310A0057726974696E6720746F2066FC
:1032F000696C653A20002E0A006F70656E20666169
:10330000696C65642C2046696C653A2000667265BC
:10331000736800646F696E67002066696C653A20A7
:10332000004E6F77200000002100240027002A00B3
:103330002D003000330001010000040107010A01E3
:1033400000002200250028002B002E003100340050
:1033500002010000050108010B010000200023000C
:10336000260029002C002F0032000001000003017C
:1033700006010901050505050705080808080202F8
:1033800002020A0A080804040404010101010101FF
:1033900001010303030303030303040707070C0CE2
:1033A0000C0C0C0C0C0C02020202060606060606A9
:1033B00006060B0B0B0B0B0B0B0B0102102020084E
:1033C0000810204010204080020102010804020180
:1033D00001020408102040808040201008040201EF
:1033E0008004020180402010080402010804020148
:1033F00001020408102040800102040810204080CF
:1034000000000A0B02090C0D0E080703040100005E
:1034100000000000000000000000000000000000AC
:103420000000000000000000000000001211100069
:10343000000000000000000000000000000000008C
:10344000000000000000020000000000000060001A
:1034500000000000FC00000FF00000000007E0008A
:1034600000000001861FC018700000000000603CD2
:103470000C000001830C6010300000000000603C74
:103480000C000001830C30303000000000006000B0
:103490000C000000030C1830000000000000600069
:1034A0003F0F3C00030C0C6001DF0FE0FE00601CCE
:1034B0001C061800060C0C6000F318318300600C29
:1034C0000C0318001E0C0C6000E030398300600C07
:1034D0000C033000030C0C6000C030380F00600C8F
:1034E0000C033000018C0C6000C03FF8FB00600C46
:1034F0000C033000018C0C6030C030018300600C84
:103500000C01F001818C0C6030C030018300600C34
:103510000C00E001818C183030C018318300600C41
:103520000C40E001838C301860C00C6187C0E01C47
:103530000CC06000C30C600FC3F007C0FFC7FC7F66
:103540000781C0007E1FC0000000000000000000D6
:103550000007000000000000000000000000000064
:1035600000070000000000687474703A2F2F6D612E
:10357000726C696E66772E6F726700322E302E3550
:103580002E330001FFFFFFFFFFFFFFFFFFFFFFFFE5
:10359000FF0FFFFFFFFFFFFFFFFFFFFFFFFFFF1E0C
:1035A0000000000000000000000007FFFF380000DE
:1035B000000000000000000003FFFF70000000009A
:1035C00000000000000001FFFF600000000000009C
:1035D0000000000000FFFF6000000000000000008D
:1035E0000000007FFFC00000000000000000780025
:1035F000003FFFC00FC0FC00000000007818001F53
:10360000FFC03FE1FF0000000000783C000FFFC05A
:103610007FF3FF8000000000783C0007FFC0FFFF41
:10362000FFC000000000783C0003FFC1F87F87E086
:103630000000000078000001FFC1F03F03E000003F
:10364000000078000000FFC1E01E01E01F0003E061
:10365000783C03F07FC1E01E01E07FC00FF8783CAA
:1036600007FC3FC1E01E01E1FFE01FFC783C0FFEBC
:103670001FC1E01E01E3FFF03FFE783C1FFE0FC1BB
:10368000E01E01E3F3F83F3E783C3F3F07C1E01EF8
:1036900001E7E0FC7C1F783C3E1F07C1E01E01E70C
:1036A000C07C7C0F783C3C0F03C1E01E01E7807CAE
:1036B000780F783C3C0F03C1E01E01E7803C7800A6
:1036C000783C3C0F03C1E01E01E7803C7800783C69
:1036D0003C0F03C1E01E01E7803C7800783C3C0FC2
:1036E00003C1E01E01E7C03C7800783C3C0F03C1F9
:1036F000E01E01E3E03C78007C3C3C0F03C1E01E8F
:1037000001E3FF3FF8007FBC3C0F03C1E01E01E175
:10371000FF3FF8003FBFFC0F03C1E01E01E0FF3F89
:10372000F8001FBFFC0F03C1E01E01E07F3FF8005F
:103730000FBFFC0F0360000000000000000000004D
:103740000000076000000000000000000000000012
:1037500006700000000000000000000000000E38AD
:103760000000000000000000000000001C1E00001F
:1037700000000000000000000000780FFFFFFFFFC6
:10378000FFFFFFFFFFFFFFFFF001FFFFFFFFFFFF56
:10379000FFFFFFFFFFFF802020506C616E6E65729F
:1037A00042756666657242797465733A20002046F8
:1037B000726565204D656D6F72793A2000436F6DBB
:1037C00070696C65643A204A756E20203920323069
:1037D00032300A00204C6173742055706461746546
:1037E000643A20323032302D30332D3331207C207A
:1037F000417574686F723A20287072696E746564DE
:10380000736F6C69642E636F6D2C2043522D3130C1
:1038100053290A00322E302E352E330A004D6172A4
:103820006C696E0020536F66747761726520526513
:103830007365740A00205761746368646F6720526F
:10384000657365740A002042726F776E206F75741D
:103850002052657365740A002045787465726E6144
:103860006C2052657365740A00506F7765725570ED
:103870000A0073746172740A006175746F25632E97
:103880006700473237004D31303031006572726F5A
:10389000722077726974696E6720746F2066696C34
:1038A000650A00446F6E6520736176696E672066F5
:1038B000696C652E0A004D323900456E6473746F71
:1038C0007073002553202563202563202563202560
:1038D0006300205A3A0020593A0020583A00656E99
:1038E0006473746F7073206869743A20004D6F764A
:1038F000652025736D6D00004D6F766520302E318B
:103900006D6D004D6F766520316D6D004D6F766584
:103910002031306D6D004D6F766520417869730000
:10392000486F74656E6420746F6F20636F6C640001
:103930004578747275646572004D6F7665205A0023
:103940004D6F76652059004D6F7665205800507296
:10395000696E742066726F6D204D656469610050F8
:10396000726F62696E67204661696C65640A005017
:10397000726F62696E67204661696C656400205AE7
:103980003A200020593A200042656420583A20002D
:10399000486F6D6520257325732573204669727302
:1039A000740043522D3130532052656164792E00EA
:1039B0005072696E74696E672E2E2E00436F6F6CA5
:1039C000696E672E2E2E0048656174696E672E2E13
:1039D0002E004520255300220A00556E6B6E6F772E
:1039E0006E20636F6D6D616E643A20220020450089
:1039F000205900204D3932205800205A0020453AE5
:103A000000205A3A0020593A00583A002E0A006F16
:103A100070656E206661696C65642C2046696C6512
:103A20003A2000009A00B20011241FBECFEFD1E26D
:103A3000DEBFCDBF00E00CBF13E0A0E0B2E0E6ECDB
:103A4000F8E902E00BBF02C007900D92A039B10760
:103A5000D9F726E1A0E9B3E001C01D92A434B20772
:103A6000E1F71DE1C3E1DDE100E006C021970109B6
:103A7000802FFE010F94CD4BC231D10780E00807A3
:103A8000A9F70F9471360D94524C0C9400000F93CB
:103A90001F93CF93DF938091040F90E0EC01CC0F44
:103AA000DD1FCC0FDD1F8E01015D1D4F880F991F9B
:103AB000FC01E15EFD4F60817181072E000C880BD7
:103AC000990B0F944B422AE037ED43E25CE30F94ED
:103AD000AA42C65CD94F288139814A815B810F9403
:103AE000AA42F8016083718382839383DF91CF912F
:103AF0001F910F9108950F931F93CF93DF938091A0
:103B0000D40E90E0EC01CC0FDD1FCC0FDD1F8E0139
:103B1000015D1D4F880F991FFC01E15EFD4F608123
:103B20007181072E000C880B990B0F944B422AE0F1
:103B300037ED43E25CE30F94AA42C65CD94F28817B
:103B400039814A815B810F94AA42F80160837183B5
:103B500082839383DF91CF911F910F9108950C94ED
:103B6000202ACF93DF9300D01F92CDB7DEB784EF2A
:103B700091E0A0E0B0E089839A83AB83BC83BE016F
:103B80006F5F7F4F80EA0E945A770F900F900F90DF
:103B90000F90DF91CF910895CF93DF9300D01F92C4
:103BA000CDB7DEB784EF91E0A0E0B0E089839A83DF
:103BB000AB83BC83BE016F5F7F4F8CE30E945A775B
:103BC0000F900F900F900F90DF91CF910895CF93AA
:103BD000DF9300D01F92CDB7DEB784EF91E0A0E075
:103BE000B0E089839A83AB83BC83BE016F5F7F4F54
:103BF00088E70E945A770F900F900F900F90DF91F7
:103C0000CF910895CF93DF9300D01F92CDB7DEB749
:103C10008EEE92E0A0E0B0E089839A83AB83BC8310
:103C2000BE016F5F7F4F8AE00E945A770F900F901E
:103C30000F900F90DF91CF910895CF93DF9300D035
:103C40001F92CDB7DEB78EEE92E0A0E0B0E08983A0
:103C50009A83AB83BC83BE016F5F7F4F8AE50E946E
:103C60005A770F900F900F900F90DF91CF9108959A
:103C7000FC0184910895FC0180810895CF93DF9326
:103C8000EC01CB01BA010F944B422AE037ED43E23D
:103C90005DE30F94A94920E030E0A9010F94CD48DD
:103CA0000F94164A688379838A839B83DF91CF912F
:103CB0000895CF93DF93EC01CB01BA010F944B42EF
:103CC00020E030E040E251E40F94A94920E030E0E8
:103CD000A9010F94CD48688379838A839B83DF9100
:103CE000CF910895CF93DF93EC01CB01BA010F94EC
:103CF0004B4220E030E040E251E40F94A94920E03B
:103D000030E0A9010F94CD48688379838A839B832F
:103D1000DF91CF910895CF93DF93EC01CB01BA01EE
:103D20000F944B422AE037ED43E25DE30F94A9493B
:103D300020E030E0A9010F94CD48688379838A831D
:103D40009B83DF91CF910895CF93DF93EC01CB015B
:103D5000BA010F944B4220E030E0A9010F94CD4806
:103D6000688379838A839B83DF91CF910895CF9372
:103D7000DF93EC01CB01BA010F944B4220E030E01D
:103D8000A9010F94CD48688379838A839B83DF914F
:103D9000CF910895CF93DF93EC01CB01BA010F943B
:103DA0004B4220E030E04AE754E40F94A94920E078
:103DB00030E0A9010F94CD48688379838A839B837F
:103DC000DF91CF910895CF93DF93EC01CB01BA013E
:103DD0000F944B4220E030E048EC52E40F94A949A4
:103DE00020E030E0A9010F94CD48688379838A836D
:103DF0009B83DF91CF910895CF93DF93EC01CB01AB
:103E0000BA010F944B4220E030E0A9010F94CD4855
:103E10000F94164A79836883DF91CF910895CF93E9
:103E2000DF93EC01CB01BA010F944B4220E030E06C
:103E3000A9010F94CD480F94114A79836883DF91CB
:103E4000CF910895CF93DF93EC01CB01BA010F948A
:103E50004B4229EC38EC48EC5EE30F94A94920E092
:103E600030E040E05FE30F94CD480F94164A68833A
:103E7000DF91CF9108958F929F92AF92BF92CF9290
:103E8000DF92EF92FF92CF936B017C0120E030E054
:103E9000A9010F94454287FD99C067E177EB81E561
:103EA00098E3A70196010F94CD486B017C0120E0B7
:103EB00030E048EC52E40F94AA424B015C0120E050
:103EC00030E0A901C701B6010F94454220E030E07F
:103ED00040EA50E487FF04C020E030E040EA50ECC4
:103EE000C501B4010F94CD4820E030E040E251E438
:103EF0000F94A9490F94114A6B017C018BE2F7FEE4
:103F000009C0F094E094D094C094C11CD11CE11C71
:103F1000F11C8DE28093F90EC701B60120E137E272
:103F200040E050E00F9491488AE0882E912CA12C1B
:103F3000B12CCA01B901A50194010F949148605DAB
:103F40006093FA0EC701B60128EE33E040E050E07E
:103F50000F949148CA01B901A50194010F949148A9
:103F6000605D6093FB0EC701B60124E630E040E0DF
:103F700050E00F949148CA01B901A50194010F9432
:103F80009148605D6093FC0EC701B601A5019401E4
:103F90000F949148C62FCA01B901A50194010F944D
:103FA0009148605D6093FD0E8EE28093FE0EC05DD1
:103FB000C093FF0E89EF9EE0CF91FF90EF90DF90CE
:103FC000CF90BF90AF909F908F90089567E177EB6F
:103FD00081E598EB66CF0F944B4220E030E040E261
:103FE00051E40F94A94920E030E0A9010F94CD4895
:103FF00042CF8F929F92AF92BF92CF92DF92EF9279
:10400000FF92CF936B017C0120E030E0A9010F9477
:10401000454287FDA4C067E177EB81E598E3A701FE
:1040200096010F94CD486B017C0120E030E0A9019E
:104030000F94454287FF98C0C701B601905820E011
:1040400030E048EC52E40F94AA4220E030E040EA2D
:1040500050E40F94CD4820E030E040E251E40F946A
:10406000A9490F94114A6B017C0180E28093F90EFB
:1040700060E280E1C81687E2D806E104F1048CF022
:10408000C701B60120E137E240E050E00F949148CB
:10409000CA01B9012AE030E040E050E00F949148B5
:1040A000605D6093FA0E60E288EEC81683E0D80681
:1040B000E104F1048CF0C701B60128EE33E040E0E2
:1040C00050E00F949148CA01B9012AE030E040E085
:1040D00050E00F949148605D6093FB0E60E284E6CF
:1040E000C816D104E104F1048CF0C701B60124E63E
:1040F00030E040E050E00F949148CA01B9012AE055
:1041000030E040E050E00F949148605D6093FC0E19
:104110008AE0882E912CA12CB12CC701B601A501F3
:1041200094010F949148C62FCA01B901A5019401C9
:104130000F949148605D6093FD0E8EE28093FE0EB9
:10414000C05DC093FF0E89EF9EE0CF91FF90EF908E
:10415000DF90CF90BF90AF909F908F90089567E1D0
:1041600077EB81E598EB5BCF20E030E048EC52E460
:10417000C701B60168CF0F944B4220E030E040E227
:1041800051E40F94A94920E030E0A9010F94CD48F3
:1041900030CF8F929F92AF92BF92CF92DF92EF92E9
:1041A000FF92CF936B017C0120E030E0A9010F94D6
:1041B000454287FF9DC067E177EB81E598EBA7015A
:1041C00096010F94CD486B017C0120E030E04AE776
:1041D00054E40F94AA424B015C0120E030E040E23D
:1041E00051ECC701B6010F944542181654F420E073
:1041F00030E048EC52E4C701B6010F94F34A87FD62
:104200008BC020E030E0A901C701B6010F94454200
:1042100087FF73C060E070E080EA90ECA501940134
:104220000F94CD4820E030E040E251E40F94A949DA
:104230000F94114A6B017C01F7FC64C020E137E266
:1042400040E050E00F949148CA01B9012AE030E003
:1042500040E050E00F949148605D6093FA0EC70112
:10426000B60128EE33E040E050E00F9491489AE028
:10427000892E912CA12CB12CCA01B901A501940160
:104280000F949148605D6093FB0EC701B60124E670
:1042900030E040E050E00F949148CA01B901A50117
:1042A00094010F949148605D6093FC0E8EE28093C0
:1042B000FD0EC701B601A50194010F949148C62FC8
:1042C000CA01B901A50194010F949148605D609302
:1042D000FE0EC05DC093FF0E8AEF9EE0CF91FF906F
:1042E000EF90DF90CF90BF90AF909F908F90089508
:1042F00067E177EB81E598E362CF60E070E080EA08
:1043000090E48CCFF094E094D094C094C11CD11C64
:10431000E11CF11C6DE2A1CF20E030E0A901C70152
:10432000B6010F94454287FF6AC060E070E080EA02
:1043300090ECA50194010F94CD4820E030E040E2DC
:1043400051E40F94A9490F94114A4B015C0120E0FC
:1043500030E0A901C701B6010F94F34A87FD0BC0F5
:1043600020E030E040E251E4C701B6010F9445423D
:1043700060E287FD13C0B7FC47C0C501B40128EE59
:1043800033E040E050E00F949148CA01B9012AE0BF
:1043900030E040E050E00F949148605D6093FB0E88
:1043A000C501B40124E630E040E050E00F949148AC
:1043B0008AE0C82ED12CE12CF12CCA01B901A70149
:1043C00096010F949148605D6093FC0E8EE280939D
:1043D000FD0EC501B401A70196010F949148C62FA7
:1043E000CA01B901A70196010F949148605D6093DD
:1043F000FE0EC05DC093FF0E8BEF9EE06FCF60E0BE
:1044000070E080EA90E495CFB094A094909480946A
:10441000811C911CA11CB11C6DE2C0CF0F944B42BA
:1044200020E030E048EC52E40F94A94920E030E06D
:10443000A9010F94CD48ADCE11989091020187FD4E
:104440009095917090930001119A000011989091AD
:10445000020186FD9095917090930001119A0000E1
:1044600011989091020185FD9095917090930001B3
:10447000119A000011989091020184FD909591701D
:1044800090930001119A000011989091020183FD10
:104490009095917090930001119A0000119890915D
:1044A000020182FD9095917090930001119A000095
:1044B00011989091020181FD909591709093000167
:1044C000119A00001198809102018170809300017F
:1044D000119A00000895089590E080E00895CF9328
:1044E000DF93CDB7DEB720E2488559856F818E8195
:1044F0000F949A12DF91CF9108950F944B4220E0D0
:1045000030E0A9010F94CD480F94114ACB010C94CF
:10451000FEEDCF92DF92EF92FF926B017C0120E0E3
:1045200030E0A9010F94454287FD26C067E177EB93
:1045300081E598E3A70196010F94CD486B017C01BA
:1045400020E030E0A9010F94454220E030E040E057
:104550005FE387FF04C020E030E040E05FEBC7018D
:10456000B6010F94CD480F94114ACB01FF90EF9004
:10457000DF90CF900C94FEED67E177EB81E598EB4F
:10458000D9CF0F944B4220E030E0A9010F94CD48E1
:10459000C0CF0F944B4229EC38EC48EC5EE30F940B
:1045A000A94920E030E040E05FE30F94CD480F944C
:1045B000164A862F0C9461EE0F944B4220E030E0B7
:1045C000A9010F94CD480F94164ACB010C9433EEF9
:1045D00060917C0470E08091040F0C94EFC06091B6
:1045E0007C0470E08091040F0C94EFC00D94E518EA
:1045F0000D94E51861EF77E383E00D94BE3264EF2C
:1046000077E383E00D94BE326DE279E382E00D94AE
:10461000BE3261E379E381E00D94BE3265E379E374
:1046200080E00D94BE32CF92DF92EF92FF92CF9353
:10463000DF9300D01F92CDB7DEB76B017C0120E085
:1046400030E0A9010F94454287FD1BC067E177EB7D
:1046500081E598E3A70196010F94CD4869837A8399
:104660008B839C83CE0101960F9431130F900F9092
:104670000F900F90DF91CF91FF90EF90DF90CF9050
:10468000089567E177EB81E598EBE4CF0F944B4217
:1046900020E030E04AE754E40F94A94920E030E0FC
:1046A000A9010F94CD48BFCFCF92DF92EF92FF9236
:1046B000CF93C82F833029F467FD6091D40E6093A7
:1046C0007F050F94D9186B017C0124EA30E74DE790
:1046D0005FE3609178047091790480917A049091FD
:1046E0007B040F94454287FD18C08AEF90E0A0E05C
:1046F000B0E08C0D9D1DAE1DBF1D80938005909375
:104700008105A0938205B0938305C0931A02CF91CF
:10471000FF90EF90DF90CF90089580E090E0DC0173
:10472000E8CF8091AF128823D1F081508093AF12EF
:10473000EBE8F0E1882351F08150990B2BE1289FA1
:10474000F001299FF00D1124EF55FE4E8BE1A0E7FB
:10475000B0E101900D928A95E1F70F94BB2D209165
:10476000AF12211105C08091B91280628093B912F5
:1047700081E090E0A0E0B0E0211103C080E090E093
:10478000DC018093E80E9093E90EA093EA0EB093BB
:10479000EB0E1092DD0E81E08093F80E83E08093A3
:1047A000860208958091191190911A11891B8F70BA
:1047B00011F40C94A17581E0089563E972E084E638
:1047C00090E00E94C5F26AEB72E084E690E00C94FF
:1047D000C5F28111F2CF68EB71E084E190E00C94B6
:1047E000C5F20E9460E8F5CF0F94B80AF2CF90911D
:1047F0004A0681E089270C94BE7360917C04709115
:104800007D0480917E0490917F0441E00C944E746D
:1048100080E090E0A0E8B0E480937E0290937F0275
:10482000A0938002B093810280E693E00E942AE187
:10483000809171048130C9F1D4F4882309F189E9A8
:1048400092E00E942AE110927E0210927F02109262
:1048500080021092810280E693E00E942AE180911A
:1048600071048F5F84309CF58093710408958230C9
:1048700049F1833021F780E090E0A4E3B2E419C06D
:1048800080E090E0A4E3B2E4809376029093770214
:10489000A0937802B093790280937A0290937B027E
:1048A000A0937C02B0937D02CACF80E090E0ABE79A
:1048B000B3E48093760290937702A0937802B0934A
:1048C0007902BDCF80E090E0ADE7B3E4E5CF109290
:1048D00071040895CF930E94EFE60E9460E8C82F0C
:1048E000882319F080E00F949F018C2FCF9171CF16
:1048F0000C940CC20C940CC20C940CC20C940CC200
:104900000C94BEC10C94BEC10C94BEC10C94BEC12B
:10491000CF93DF9300D01F92CDB7DEB70F94164A26
:104920000F94494269837A838B839C83CE010196DD
:104930000E9402ED0F900F900F900F90DF91CF919A
:1049400008950F944B422AE037ED43E25DE30F9464
:10495000A94920E030E0A9010F94CD48D9CFCF92EA
:10496000DF92EF92FF92CF93DF9300D01F92CDB7EB
:10497000DEB76B017C0120E030E0A9010F944542D5
:1049800087FD1BC067E177EB81E598E3A7019601FE
:104990000F94CD4869837A838B839C83CE010196E3
:1049A0000E9402ED0F900F900F900F90DF91CF912A
:1049B000FF90EF90DF90CF90089567E177EB81E56E
:1049C00098EBE4CF0F944B422AE037ED43E25DE3EE
:1049D0000F94A94920E030E0A9010F94CD48BFCF42
:1049E0000F944B4220E030E0A9010F94CD48B7CF9F
:1049F000AF92BF92CF92DF92EF92FF920F931F93ED
:104A0000CF93DF936B01E9014A3009F4B6C0453119
:104A100009F06BC0DB011296ED91FC91F280C6812A
:104A2000D78180910201809582708093000188E295
:104A30008A950000E9F7BF2CB29420EFB22230E152
:104A4000A32EAF0C48E2E42E88EFF6DC8E2D8A957B
:104A50000000E9F7BFE1BF1508F47EC08F2D807715
:104A60008068EADC8B2DE8DC8E2D8A950000E9F762
:104A700080E8E2DC80E0E0DC8E2D8A950000E9F73A
:104A80008AEFDADC8E2D8A950000E9F78E01005F4F
:104A90001F4F8881807FD0DC89918295807FCCDC1C
:104AA000C017D107B1F78E2D8A950000E9F7F3946E
:104AB000E0E1BE0EFA10C8CF8091020182708093AF
:104AC0000001D6011296CD91DC91CE010F94CA1A45
:104AD0008111E1C1DF91CF911F910F91FF90EF9074
:104AE000DF90CF90BF90AF900895FB0102811381BA
:104AF000423309F48BC108F48FC1463409F47CC1F8
:104B0000473409F47FC14B3329F589812B81D801C2
:104B100012966C91129713964C91213009F4D2C1E0
:104B2000233009F09CC138EF380F582F91E043171C
:104B300008F490E041E0531708F040E031E05617E8
:104B400008F430E0592F542B352309F0B0C19423D9
:104B500009F0ADC181E0BECF80EE8F0D8068807F0F
:104B60006BDC8F2D8295807F67DC8E2D8A9500000F
:104B7000E9F780E861DC80E87ECF80910101826006
:104B800080930101809102018270809300018091E5
:104B90000101816080930101809102018170809305
:104BA0000001099A119A8091020180958270809388
:104BB000000188E28A950000E9F788E790E0CEE9F5
:104BC000DFE0FE013197F1F70197D9F788EF34DC88
:104BD00018E2812F8A950000E9F780E22DDC80E061
:104BE0002BDC812F8A950000E9F780E025DC80E846
:104BF00023DC812F8A950000E9F780E01DDC80E14D
:104C00001BDC812F8A950000E9F7CE010197F1F7AF
:104C1000CE010197F1F7CE010197F1F7CE0101978F
:104C2000F1F7CE010197F1F7CE010197F1F7CE012F
:104C30000197F1F7CE010197F1F7CE010197F1F756
:104C4000CE010197F1F7CE010197F1F7CE0101975F
:104C5000F1F7CE010197F1F7CE010197F1F7219716
:104C6000F1F780E2E9DB80E4E7DB812F8A95000041
:104C7000E9F780E2E1DB80E6DFDB1A950000E9F787
:104C800010E0D0E0C8E28D2F80778068D5DB812FDF
:104C9000D3DB8C2F8A950000E9F780E8CDDB80E03C
:104CA000CBDB8C2F8A950000E9F78AEFC5DB8C2FD0
:104CB0008A950000E9F790E21198809102018170D5
:104CC00080930001119A0000119880910201817077
:104CD00080930001119A0000119880910201817067
:104CE00080930001119A0000119880910201817057
:104CF00080930001119A0000119880910201817047
:104D000080930001119A0000119880910201817036
:104D100080930001119A0000119880910201817026
:104D200080930001119A0000119880910201817016
:104D300080930001119A0000119880910201817006
:104D400080930001119A00001198809102018170F6
:104D500080930001119A00001198809102018170E6
:104D600080930001119A00001198809102018170D6
:104D700080930001119A00001198809102018170C6
:104D800080930001119A00001198809102018170B6
:104D900080930001119A00001198809102018170A6
:104DA00080930001119A0000119880910201817096
:104DB00080930001119A00008C2F8A950000E9F77A
:104DC000915009F079CF88EF37DB8C2F8A9500005E
:104DD000E9F7DF5F105FD03209F055CF80E02CDBC0
:104DE00080EC2ADBCA950000E9F78091020182700D
:104DF0008093000181E06ECED80115968C91888356
:104E000081E068CEF80181818883FACFB901C801B9
:104E10000F94B41A81E05ECE443171F0473109F04D
:104E200099CE1882F80182818983858181508A8395
:104E300083818B8381E04ECED80115964C911597D6
:104E400050E0440F551F70E060E016968D919C91E4
:104E50000F94F34BC8010F94E01A81E03BCE481742
:104E600008F478CE861708F475CEFA80E12CD12CA0
:104E7000243070F41DC0BE01C8010F94B41A89819A
:104E800098819D0D98838E0D8983FF0C09F462CE65
:104E9000F7FEF6CFF0CF4D8150E0440F551F70E084
:104EA00060E08E819F810F94F34B81E013CEFA80F6
:104EB00030E0F901EB56FD4FD0802F563D4FF90100
:104EC000E080E6CF58E0580F382F30CEDF92EF92D7
:104ED000FF920F931F93CF93DF93EC01D62E1CAD5F
:104EE0000BAD7C0184E0E80EF11CE98DFA8DC70161
:104EF0001995412F480F2D2D602FC7010F941E1EAD
:104F00009BAD890F8BAF81E090E0DF91CF911F9136
:104F10000F91FF90EF90DF9008958F929F92AF9244
:104F2000BF92CF92DF92EF92FF920F931F93CF9396
:104F3000DF93EC018B017A018A859B8586179707A1
:104F400031F0888199810F94F81C1B870A87888526
:104F50009985019641F50C81DA808E81D80EA88062
:104F6000B980D5015596ED91FC91C5011995080FB1
:104F700010E0F70121917F0121114FC08E819F81A7
:104F8000810F911D9F838E8390E080E0DF91CF9110
:104F90001F910F91FF90EF90DF90CF90BF90AF9057
:104FA0009F908F900895CE80DF80F701008110E000
:104FB000002321F1A880B980602FC5010F94501DF6
:104FC000D50151961C9111954701BFEF8B1A9B0A91
:104FD000F40181914F01882351F0D50150969C91A5
:104FE000190F082F682FC5010F94501DF1CF003203
:104FF00081F0F50183899189890F180FC10ED11CA9
:10500000288539852C153D0508F0A5CF81E090E075
:10501000BDCFD50150968C91F0CF402F6D2DC5019D
:105020000F941E1ED80E180FA4CFEF92FF920F936D
:105030001F93CF93DF93CDB7DEB72C970FB6F894BD
:10504000DEBF0FBECDBF1091981100919911209134
:10505000850521111BC049E455E0602F812F0F9475
:10506000881E90E080E0180F10939811009399111A
:1050700099272C960FB6F894DEBF0FBECDBFDF91F7
:10508000CF911F910F91FF90EF900895E0906511DF
:10509000F090661121E631E13A832983212F30E037
:1050A0003C832B83202F30E03E832D8318861F8284
:1050B0007A8769871C861B869E012F5F3F4F48E3D6
:1050C0005EE1BC01C7010F94140DB70181E691E1C7
:1050D0000F94F81C8F819885C6CF282F1092E40E6C
:1050E0008091E80E9091E90EA091EA0EB091EB0E3E
:1050F000B7FF08C01092E80E1092E90E1092EA0E67
:105100001092EB0E80918705882331F08091E80E94
:105110008093DC0E1092F80E8091D60E1816FCF4D7
:10512000082E000C990B821B91092091DC0E022E97
:10513000000C330B2817390794F097FF02C090E05A
:1051400080E08093DC0E092E000CAA0BBB0B809331
:10515000E80E9093E90EA093EA0EB093EB0E8091C7
:10516000DC0E6623A9F09091DD0E891714F480936C
:10517000DD0E2091DD0E022E000C330B2C5F3F4F15
:10518000482F082E000C550B241735071CF48450AB
:105190008093DD0E08958F929F92AF92BF92EF920F
:1051A000FF920F931F93CF93DF93EC018B01E42EBB
:1051B000F22E80915B1190915C118C179D07C9F1C3
:1051C0002FE5C333D20709F03FC08459964F71F4DD
:1051D0000F94D9186E517B4F8F4F9F4F60936C0483
:1051E00070936D0480936E0490936F04D0935C1160
:1051F000C0935B1130E020E00093E80E1093E90EBD
:105200002093EA0E3093EB0EE092DD0EF092D60E74
:10521000C459D64F21F41092860510926B0482E097
:105220008093860281E08093F80E10928805109298
:105230007004DF91CF911F910F91FF90EF90BF907D
:10524000AF909F908F90089526EFC439D20771F6E2
:1052500083539F4519F0C4E9D6EFC8CF0F94D918EE
:1052600080906C0490906D04A0906E04B0906F04D8
:10527000681979098A099B0997FFEDCFC091190F29
:1052800091DA882341F3C770C73029F7C9E4D9E21E
:10529000ADCF20E040E070E060E08DE696E37BDF9C
:1052A00081E08093860510923904109238040895A5
:1052B00021E02093860560937804709379048093AD
:1052C0007A0490937B0420E040E070E060E08091FD
:1052D000DE0E9091DF0E5FCF6DEC7CEC8CEC9CE3EE
:1052E000E7CF6DEC7CEC8CEC9DE3E2CF60E070E00E
:1052F00080E89FE3DDCF60E070E080E291E4D8CF0A
:1053000081E0809386058091190F8770873041F086
:105310001092260F87E59DE090934F0D80934E0DE0
:1053200080914A068093720480E00E94BE7320E060
:1053300040E070E060E082E694E32DCFE0916B0402
:10534000E63010F581E08E0F80936B044091E80EFB
:105350005091E90E6091EA0E7091EB0E9091DD0E86
:105360008091D60E28E0E29FF0011124E55CFB4F0E
:1053700020915B1130915C113183208342835383F0
:105380006483758396838783089520E040E070E00E
:1053900060E084E996EFFFCE0E94CC750E9445BB89
:1053A000F4CF87E29FE00F94051FEFDF0D946B0FA2
:1053B000611160930002409337048C3008F039C0CB
:1053C000E82F880FFF0B8827E751F64D8F4F0D947C
:1053D000CD4B1A2AF529FF291D2A022A052A082A57
:1053E000142A0B2A192A0E2A112A8DED95E321E0A1
:1053F0002093860520E040E070E060E0CCCE83EEB4
:1054000095E3F5CF86EE95E3F2CF89EE95E3EFCF06
:105410008CEE95E3ECCF8FEE95E3E9CF82EF95E349
:10542000E6CF85EF95E3E3CF109236048AE69AE360
:10543000DECFABCF8AED95E3DACF80EE95E3D7CF21
:10544000E0916B04EE2381F0E150E0936B0488E07F
:10545000E89FF0011124E55CFB4F62817381278195
:1054600046818081918197CE90CF8F929F92AF920B
:10547000BF92CF92DF92EF92FF920F931F93CF9341
:10548000DF9361E081E029DEC091DD0E85E0982E9A
:105490009C0E9AE7E92E9DE0F92ED3E0DC1B2AE66C
:1054A000C22E2DE0D22E12E01C1B3BECA32E3DE0C1
:1054B000B32E01E00C1B8C2E8194C11132C080915F
:1054C000DC0E8823B1F080918602882359F081E0B8
:1054D0009091DC0E911180E024E04AEA5DE0682DB5
:1054E0000F949A12CF5FC911E8CF84E08093D60E53
:1054F0000BC08091D50E1092D50E882321F3A0DF2A
:105500008091F80E8823F9F2DF91CF911F910F91CE
:10551000FF90EF90DF90CF90BF90AF909F908F90D3
:105520000895C13051F58091DC0E813079F0809181
:1055300086028823B9F21F92BF92AF920F9381E047
:105540009091DC0E913071F180E02CC08091D50EED
:105550001092D50E882359F36091B1057091B20570
:105560004091AF058091B5059091B6050F94163125
:105570008091F80E8823D9F2C7CFC23009F045C018
:105580008091DC0E8230B9F080918602882309F484
:10559000A9CF1F92DF92CF921F9381E09091DC0EF2
:1055A000923091F68F930E946F220F900F900F9080
:1055B0000F900F9097CF8091D50E1092D50E882323
:1055C00019F34091AF056FEF7FEF8091B505909192
:1055D000B6050F9416318091F80E8823A9F294CF66
:1055E0008091D50E1092D50E8823B1F06091B1054F
:1055F0007091B2054091AF0590E080E00F941631B4
:105600008091F80E882341F07FCFC33009F06ACF34
:105610008091DC0E833021F380918602882309F487
:1056200061CF1F92FF92EF92DF9381E09091DC0EA9
:10563000933009F089CFB6CF8F929F92AF92BF92ED
:10564000CF92DF92EF92FF920F931F93CF93DF934E
:1056500061E081E042DDC091DD0E85E0982E9C0E78
:105660009AE8E92E9DE0F92ED3E0DC1B2AE9C22E50
:105670002DE0D22E12E01C1B3FEBA32E3DE0B32EFB
:1056800001E00C1B8C2E8194C11132C08091DC0E84
:105690008823B1F080918602882359F081E09091AF
:1056A000DC0E911180E024E04AEA5DE0682D0F9461
:1056B0009A12CF5FC911E8CF84E08093D60E0BC059
:1056C0008091D50E1092D50E882321F3B9DE8091FA
:1056D000F80E8823F9F2DF91CF911F910F91FF907F
:1056E000EF90DF90CF90BF90AF909F908F900895F4
:1056F000C13051F58091DC0E813079F080918602C5
:105700008823B9F21F92BF92AF920F9381E09091DC
:10571000DC0E913071F180E02CC08091D50E10929A
:10572000D50E882359F36091B3057091B40540916B
:10573000B0058091B7059091B8050F94163180910E
:10574000F80E8823D9F2C7CFC23009F045C0809146
:10575000DC0E8230B9F080918602882309F4A9CF4B
:105760001F92DF92CF921F9381E09091DC0E9230D6
:1057700091F68F930E946F220F900F900F900F90D1
:105780000F9097CF8091D50E1092D50E882319F3E4
:105790004091B0056FEF7FEF8091B7059091B8050C
:1057A0000F9416318091F80E8823A9F294CF80913E
:1057B000D50E1092D50E8823B1F06091B30570918B
:1057C000B4054091B00590E080E00F9416318091CF
:1057D000F80E882341F07FCFC33009F06ACF809163
:1057E000DC0E833021F380918602882309F461CF97
:1057F0001F92FF92EF92DF9381E09091DC0E933045
:1058000009F089CFB6CF2F923F924F925F926F925D
:105810007F928F929F92AF92BF92CF92DF92EF9240
:10582000FF920F931F93CF93DF9300D01F92CDB7BA
:10583000DEB761E081E051DC1091DD0E212E85E0C4
:10584000382E310E94EFC92EDD24D394E12CF12CA7
:1058500005E0011B2EEE422E22E0522E612C712C0F
:1058600084E0B82EB11A83E0A82EA11A82E0982E07
:10587000911A81E0882E811A11113DC08091DC0EB1
:105880008823B9F080918602882361F0622D6195AA
:1058900081E09091DC0E911180E024E040E658E038
:1058A0000F949A121F5F1311E7CF86E08093D60EF4
:1058B0000BC08091D50E1092D50E882319F3C0DD50
:1058C0008091F80E8823F1F20F900F900F900F90B7
:1058D000DF91CF911F910F91FF90EF90DF90CF90CC
:1058E000BF90AF909F908F907F906F905F904F9000
:1058F0003F902F900895113069F58091DC0E813032
:10590000A1F080918602882369F281EB9DE19F934B
:105910008F9380E498E09F938F938F9281E0909192
:10592000DC0E913089F180E02FC08091D50E10926D
:10593000D50E882331F3C982DA82EB82FC82BE0164
:105940006F5F7F4F80EA0E945A778091F80E88231C
:10595000C1F2BACF123009F0A7C08091DC0E8230BC
:10596000E9F080918602882309F49CCF87EE9DE1BF
:105970009F938F9381E398E09F938F939F9281E011
:105980009091DC0E923079F68F930E946F220F90E7
:105990000F900F900F900F900F9084CF8091D50EA5
:1059A0001092D50E8823E9F2C982DA82EB82FC825A
:1059B000BE016F5F7F4F88E70E945A778091F80E93
:1059C000882379F281CF8091DC0E8330A9F0809119
:1059D0008602882309F466CF82E09EE19F938F932D
:1059E00085E298E09F938F93AF9281E09091DC0ED7
:1059F000933009F098CFC8CF8091D50E1092D50E74
:105A0000882329F349825A826B827C82BE016F5FB0
:105A10007F4F8AE00E945A778091F80E8823B9F26E
:105A200053CF8091DC0E8430A9F0809186028823C8
:105A300009F438CF8DE19EE19F938F938BE198E03D
:105A40009F938F93BF9281E09091DC0E943009F088
:105A50006ACF9ACF8091D50E1092D50E882329F364
:105A600049825A826B827C82BE016F5F7F4F8AE5DA
:105A70000E945A778091F80E8823B9F225CF809141
:105A8000D50E1092D50E8823E1F0C982DA82EB821E
:105A9000FC82BE016F5F7F4F8CE30E945A7780913A
:105AA000F80E882371F010CF133009F48CCF143026
:105AB00009F4B7CF153009F0F5CE8091DC0E8530B2
:105AC000F1F280918602882309F4ECCE8CEC9DE102
:105AD0009F938F938EE098E09F938F930F9381E035
